S0100000313074682D4C45442E73726563D5
S1130000F8FF002011040000230E0000230E00005E
S1130010230E0000230E0000230E0000230E000018
S1130020230E0000230E0000230E0000230E000008
S1130030230E0000230E0000230E0000230E0000F8
S1130040230E0000230E0000230E0000230E0000E8
S1130050230E0000230E0000230E0000230E0000D8
S1130060230E0000230E0000230E0000230E0000C8
S1130070230E0000230E0000230E0000230E0000B8
S1130080230E0000230E0000230E0000230E0000A8
S1130090230E0000230E0000230E0000230E000098
S11300A0230E0000230E0000230E0000230E000088
S11300B0230E0000230E0000230E0000230E000078
S11300C0230E0000230E0000230E0000230E000068
S11300D0230E0000230E0000230E0000230E000058
S11300E0230E0000230E0000230E0000230E000048
S11300F0230E0000230E0000230E0000230E000038
S11301004D040000230E0000230E0000230E000007
S1130110230E0000230E0000230E0000230E000017
S1130120230E0000230E0000230E0000230E000007
S1130130230E0000230E0000230E0000230E0000F7
S1130140230E0000230E0000230E0000230E0000E7
S1130400FFFFFFFFFFFFFFFFFFFFFFFFFEFFFFFFF9
S11304104FF000004FF000014FF000024FF00003D6
S11304204FF000044FF000054FF000064FF00007B6
S11304304FF000084FF000094FF0000A4FF0000B96
S11304404FF0000C62B601F04DFCFEE780B5DFF81A
S11304506005006850F00100DFF8541508600020C2
S1130460DFF8501508600320DFF848150860DFF84E
S1130470480500F065FBDFF8400500F0E9FBDFF814
S11304803C150870DFF83805006800B2DFF8341551
S113049008600020DFF828150860DFF828050068E8
S11304A0DFF82415088000F062F800F0DCF9012080
S11304B0DFF818150860DFF818050078012817D14F
S11304C0DFF810050078002812D1DFF80C05007859
S11304D003280DDBDFF804050078032808DBDFF8C8
S11304E000050078042803DB0120DFF8F814087005
S11304F00020DFF8F41408700020DFF8F01408700E
S11305000020DFF8D41408700020DFF8D01408703D
S11305100020DFF8CC140870DFF8B4040078002859
S113052010D1DFF8CC040088401CDFF8C414088024
S1130530DFF8BC040088B0F5C87F03DD0120DFF8D4
S113054090140870DFF8AC044068002807D101203B
S1130550DFF8801408700020DFF89C140870DFF8BE
S11305609C040088401CDFF89414088001BD80B509
S1130570DFF85404B0F90000DFF878144860002074
S1130580DFF844140880DFF878040068002803D4F6
S1130590DFF86C04006803E0DFF86404006840429C
S11305A0032805DA5FF07E50DFF85814086004E091
S11305B05FF07F50DFF84C140860DFF844040068F3
S11305C0002803D4DFF83804006803E0DFF83004BF
S11305D000684042DFF828140968002903D4DFF8D2
S11305E02014096803E0DFF81814096849424843F5
S11305F000F000FCDFF80C14096800F013FC0100A3
S1130600DFF8040400F07AFCDFF800140860DFF877
S1130610FC030068DFF8F81300F0E4FC04D2DFF810
S1130620F003DFF8E8130860DFF8E8030078002837
S113063065D0DFF8CC030068002803D4DFF8C003DA
S1130640006803E0DFF8B80300684042052805DAD3
S11306505FF07E50DFF8AC13086019E0DFF8A00308
S11306600068002803D4DFF89803006803E0DFF88B
S11306709003006840420D2805DBDFF89C03DFF897
S11306808413086004E0DFF89403DFF8781308604B
S1130690DFF86C030068002803D4DFF86403006803
S11306A003E0DFF85C0300684042DFF85413096894
S11306B0002903D4DFF84813096803E0DFF8401386
S11306C009684942484300F095FBDFF8381309688C
S11306D000F0A8FB0100DFF8480300F00FFCDFF88E
S11306E02C130860DFF824030068DFF8381300F0E7
S11306F079FC04D2DFF82C03DFF810130860DFF86C
S113070028030078002851D0DFF8F402006800289C
S113071003D4DFF8EC02006803E0DFF8E4020068C9
S11307204042032804DA5FF07E50B649086013E0C3
S1130730B3480068002802D4B148006802E0B04819
S1130740006840420E2803DBB848AE49086003E065
S11307505FF07F50AB490860A9480068002802D4C4
S1130760A748006802E0A64800684042A449096816
S1130770002902D4A249096802E0A1490968494252
S1130780484300F037FB9F49096800F04BFB010028
S1130790A34800F0B3FB9D4908609C480068A44945
S11307A000F020FC02D2A2489849086099480078D9
S11307B0002806D09C480078002802D09D48934920
S11307C008608448007800281AD09B488F49086044
S11307D089480078401C88490870894800680028C6
S11307E002D48748006802E0854800684042042833
S11307F003DA81480078792802DB00207549087003
S113080073480078002802D10020804908607548A8
S1130810007801280BD189480088401C874908804A
S113082086480088292802DB002078490860774838
S1130830006800F0E9FBD0F5FA708149086080484F
S11308400068002802D47E48006802E07C48006802
S1130850404280B27B4908607B48006850F40070D5
S11308607949086001BD5548007878490978401AEB
S1130870634908605C480078332807DB5B480078EC
S1130880332803DB724800685D4908605C480068EF
S11308906F4908606F480078002812D058480068F3
S11308A0002802D45648006802E0554800684042D7
S11308B0052803DB1E206849087002E0052066490C
S11308C00870654800786549087041F268004C4931
S11308D00968614A127802FB1100604909785C4A90
S11308E01268474B1B68D21A02FB01005C4908607E
S11308F05B48006840F6B931884204D240F6B8300B
S11309005749086009E05648006841F28831884236
S113091003D341F288305249086042F2D000504972
S11309200968401A4F4908604E48006840F6B931DA
S1130930884204D240F6B8304A49086009E0494880
S1130940006841F28831884203D341F28830454936
S1130950086024480078012828D04248006841F201
S11309608831884202D23F48006801E041F2883071
S113097040F6B931884202D240F6B8300AE039482C
S1130980006841F28831884202D23648006801E0AA
S113099041F2883043F2D401081A80B23249086027
S11309A03248006850F40070304908607047000015
S11309B00C710340087103408004FF1FAB05FF1F47
S11309C004A003408005FF1F9805FF1F9405FF1F27
S11309D0AD05FF1F7C04FF1FA405FF1FA505FF1F16
S11309E0A605FF1FAE05FF1FA205FF1FA305FF1FDE
S11309F09C05FF1F2805FF1FAC05FF1F9A05FF1F5D
S1130A000405FF1F8405FF1F000039438C05FF1FE9
S1130A1000001643A705FF1FCDCCCC3E9A99593F41
S1130A200000824300003E43A805FF1F6666E63FC0
S1130A300000524300002A43000096439E05FF1F16
S1130A408805FF1F18900340989003405C04FF1F23
S1130A500805FF1FA905FF1F7404FF1F7504FF1F6E
S1130A607804FF1F9005FF1F3080034098800340E7
S1130A7070B5A0B0040000262A2000F0A6FB4C208C
S1130A8000F0A3FB442000F0A0FB002000F028F8B5
S1130A90002000F025F8002000F022F8002000F0EB
S1130AA01FF8002505E0EDB2285D00A9EDB26854F9
S1130AB06D1CEDB2802DF6DB002505E000A8EDB23B
S1130AC0285C00F00DF86D1CEDB2802DF6DB3000D3
S1130AD0C0B200F005F8232000F077FB20B070BD11
S1130AE010B50400E4B22009C0B20A2804DA303098
S1130AF0C0B200F06AFB03E03730C0B200F065FB1F
S1130B0014F00F00C0B20A2804DA3030C0B200F08A
S1130B105CFB03E03730C0B200F057FB10BD50F867
S1130B20041B61B150F8042BD30744BFA9F101039E
S1130B309A18002342F8043B091FFAD1EFE77047E3
S1130B4038B5040000BF4048006830F000703E49EA
S1130B50086000BF3C48006850F000703A490860E3
S1130B6000BF00BF00BF00BF00BF3748006850F09F
S1130B7020003549086000BF3348006830F0007039
S1130B803149086000BF206800B200F08FFB20717B
S1130B902D48006830F020002B49086000BF00BFDA
S1130BA000BF00BF00BF012518E000BF00BF2648FA
S1130BB0006850F020002449086000BF00BF00BF57
S1130BC000BF206800B200F071FB291908711E48AB
S1130BD0006830F020001C4908606D1C132DE4DB14
S1130BE000BF132518E000BF00BF1748006850F08D
S1130BF020001549086000BF00BF00BF00BF206887
S1130C0000B200F053FB291908710F48006830F056
S1130C1020000D4908606D1C802DE4DB00BF00BF7F
S1130C200948006850F020000749086000BF00BF71
S1130C300548006830F020000349086000BF31BD5A
S1130C40002002490860704700F10F408004FF1F34
S1130C500F2112E00A1852790B181B79D21AFF2AB5
S1130C600ADD0A18D2780B185B7953FA82F2022350
S1130C7092FBF3F20B181A71491C702920DA0A1836
S1130C8012790B18DB78D21A002A05D40A181279C3
S1130C900B18DB78D21A04E00A18D2780B181B79E7
S1130CA0D21AFF2AE8DD0A1812790B185B79D21AD6
S1130CB0002ACFD40A1812790B185B79D21ACEE71E
S1130CC03F2105E0414A1278521C404B1A70491EDC
S1130CD010290BDB0A1812790B185B78D21A3C4BDB
S1130CE01B689A42EEDB0022384B1A70491E394ABF
S1130CF01170402105E0384A1278521C364B1A70A4
S1130D00491C70290BDA0A1812790B18DB79D21AEC
S1130D102F4B1B689A42EEDB00222F4B1A70491CA2
S1130D202E4A117029490978332907DB2B490978A0
S1130D30022291FBF2F12A4A117015E02649097842
S1130D40332907DB23490978022291FBF2F1244A73
S1130D50117009E01F490978204A127851180222BB
S1130D6091FBF2F11E4A11701E490978012929D11B
S1130D70272109E00A181279642A04DA1A4A127837
S1130D80521C194B1A70491C3729F3DB372109E02F
S1130D900A181279652A04DB144A1278521C134B80
S1130DA01A70491C4629F3DB462109E00A18127916
S1130DB0642A04DA0E4A1278521C0D4B1A70491C2C
S1130DC05929F3DB06480078704700BFA205FF1FCE
S1130DD06004FF1FA005FF1FA305FF1FA105FF1F40
S1130DE06404FF1FAD05FF1FA405FF1FA605FF1F19
S1130DF0A505FF1F002840F10780F446404200F09B
S1130E0003F850F0004060470AD0B0FA80F18840FF
S1130E10D1F19D01C905020672F1004241EB102097
S1130E2070477047FF2212EAD05C1DBF12EAD1530B
S1130E30944593422BE09C44D30780EA01021A4074
S1130E4043EA002043EA0121A1FB0030410038BFFE
S1130E5040007CF17F010BDBFE294ADA5B0842EAA1
S1130E60C15153EA006373F1004C51EB10207047F9
S1130E70D1F1080CDCF120012FDB5B0810FA01F141
S1130E800B4373F1004120FA0CF050417047944534
S1130E901CBF02EAD153934280EA010202F00042ED
S1130EA01DD0400019D0490017D05BB9634514D058
S1130EB00902B1FA81F39940BCEB030CC00140F084
S1130EC00040C1E70002B0FA80FC10FA0CF0B3EB6A
S1130ED00C0CC90141F00041B6E710007047400016
S1130EE00AD0490008D010F1807F94BF11F1807FAF
S1130EF002E042F0FF407047D043704790EA010F90
S1130F0044BF81F0004100F0E1B900BF431A4FF043
S1130F1000423EBF5340C01AC91800BFD3095FEA5C
S1130F20D05C13EB400F34BFB3EB410F40E07CEBDC
S1130F30D1530CD342EA012122D8D1EB402009D36A
S1130F40400A28BF5FEA500140EBCC507047401A7A
S1130F5015D04002B0FA80F2521C9040400A4FEA89
S1130F603C23B3EB026384BF00EB730007E040F45F
S1130F7000001A16DB07C2F10102D0401843704783
S1130F80182BFCDC31FA03F202FA03F3591A38BFC6
S1130F9042F00102D2EB40203CBF4000ACF1010C16
S1130FA05FEACC5CC20572F100414CEB5020704703
S1130FB013EB400F0FD24B0009D0ACEBD153022BF3
S1130FC003DB4902172BDDDD70479143401A4300D0
S1130FD0D5D10020704713EB410FD0D36FF0000040
S1130FE0704700004FF0807C1CEB400F94BF1CEB5B
S1130FF0410F05E040EA010C5FEA4C0C01D2884243
S1131000704718BF814270474100090E7F3915D4DB
S1131010D1F11F0114D4400007D2C00140F00040B8
S1131020C84048BF6FF000407047C00140F0004026
S1131030C8404CBF4FF0004040427047002070470A
S113104000424FF0004058BFC0437047F0B56248BB
S1131050006850F40060604908606048007810F04F
S1131060F3005E49087000205D4908705D4800681F
S11310704FF47A7181FB00015FF46122002300F0D8
S11310805FF90400574800684FF4FA4181FB0001FE
S11310905FF46122002300F053F9B0EB441551488A
S11310A0006842F2107181FB000115EB4412521CDE
S11310B0D31700F045F94C4A5FF0FF3380185941CB
S11310C0002915DB01DC002812D34648006842F2EF
S11310D0107181FB000115EB4412521CD31700F070
S11310E02FF9414A5FF0FF33861851EB030713E0F1
S11310F03C48006842F2107181FB000115EB441278
S1131100521CD31700F01CF9374A5FF0FF338018E4
S11311105941464271EB41073248006842F210716E
S113112081FB000115EB4412D31700F009F92E4A94
S11311305FF0FF3380185941002913DB01DC0028DC
S113114010D32848006842F2107181FB000115EBAE
S11311504412D31700F0F4F8234A5FF0FF338018E9
S1131160594112E01F48006842F2107181FB0001EE
S113117015EB4412D31700F0E3F81B4A5FF0FF337A
S113118080185941404271EB41018F4203DC01DB7D
S1131190864200D26D1C201210F01F001349087003
S11311A01348047015F01F00124908704FF4407082
S11311B0114908604FF440701049086007480078EE
S11311C050F00C0005490870F0BD0D490978090676
S11311D0FBD50C49087070473480044003B00640C6
S11311E002B006401405FF1F009BFBFF00B0064041
S11311F001B006400AB0064010B004400CB00440F0
S113120004B0064007B006402448006850F000606F
S1131210224908602248006850F0006020490860B4
S1131220704730B41C0000230025D2B2082A06D02F
S11312300A2A08D00C2A04D0102A06D007E0002578
S113124006E0012504E0022502E0032500E0002574
S1131250002801D1134800E01348EDB2AA0012F0AF
S11312600C0252F050028260E4B2002C02D1072238
S1131270C26001E01722C26011F01F0151F0400169
S1131280016001680906FCD50369016831F0800139
S11312900160180080B230BC704700003C800440FC
S11312A03080044000B0034000B00B4080B5010022
S11312B0002009B2002906D10023082207210120B9
S11312C0FFF7AFFF00E0002080B202BD421A3CBF2E
S11312D0801A89184FF0004CC0F3C752FF2A24D05B
S11312E0C1F3C75313B3D21AD2F1190327DD4CEA61
S11312F001214CFA03F321EA0303D140C20D4CEA65
S11313000020401834BF20EA0C004CEA5000D205FB
S113131053EA006373EB0C0C52EB1020420012F101
S1131320807F38BF7047C00DC0057047490212BFA7
S11313309A4200EB5120F8E7D2F11703D9D5704750
S113134013F0004C03D55B42524263F100039CEA64
S1131350210C00F0178010B5644603D34942404283
S113136061F1000100F00EF8640004D349424042E8
S113137061F10001244203D55B42524263F1000350
S113138010BD00001B4213D1094236D12AB1844654
S1131390B0FBF2F002FB10C2704700F06BB8FCD354
S11313A00022002370470B00020000210020704738
S11313B0904271EB030CF6D370B5B1FA81F4B3FA31
S11313C083F52C1BA340C4F1200532FA05F6334300
S11313D0A2405FF00046E64002E05B085FEA3202AA
S11313E0841A71EB030524BF204629467641F4D3C1
S11313F002000B003000002170BD012ACFD970B566
S1131400140C20D0B1FA81F4B2FA82F5C4F12004AC
S11314106419B4F12006D6D3B2405FF00044F4401E
S1131420002502E052085FEA3303C61A71EB020E8C
S113143024BF3046714664416D41F3D302000B0072
S11314402000290070BD0C46B1FBF2F102FB1145EE
S11314502D0445EA1045B5FBF2F402FB145580B2A5
S113146040EA0545B5FBF2F002FB105240EA0440A5
S113147070BD000070470000DFF800F01104FF1F8A
S113148080B5C0B2002816D0C0B2012813D0C0B2B3
S1131490022810D0C0B203280DD0C0B204280AD04C
S11314A0C0B2052807D0C0B2062804D0C0B20728AD
S11314B001D0002093E01C22544B1A709822544B04
S11314C01A70544A12789207FBD5524A1278D206FF
S11314D0FBD4504A1278C2F38102D2B2022AF8D164
S11314E000224D4B1A70C0B200280BD002281FD026
S11314F013D3042832D026D3062845D039D307285D
S11315004DD056E00123002200210020FFF7B4FF54
S113151041204249087032214BE00323012201217A
S11315200020FFF7A9FF5A203C490870642140E0DD
S11315300423012201210020FFF79EFF5020374998
S11315400870A02135E00523012201210020FFF7C6
S113155093FF552031490870B4212AE00523012264
S113156001210020FFF788FF5A202C490870C82168
S11315701FE00123002200210020FFF77DFF40200F
S113158026490870302114E00323012201210020A0
S1131590FFF772FF582021490870602109E00423F5
S11315A0012201210020FFF767FF40201B4908703A
S11315B08021184800788006FBD51648007840063C
S11315C0FBD51348007810F03F00114A1070114801
S11315D00078C0F38100C0B20328F8D1080002BD2E
S11315E00F48006850F480500D4908604FF4E060E3
S11315F00C49086070470C48006850F001000A4923
S113160008604FF4A0600949086070470140064033
S1131610004006400640064004400640054006409F
S11316200480044018900440408004400CB00440FE
S113163080B5F02080F31188302000F008F80321F1
S1131640302000F08DF8602080F3118801BD10B4C3
S1131650011E5C2971D2202190FBF1F1002905D0F3
S1131660022937D01CD303294ED066E034490968D7
S11316700122202390FBF3F404FB1304A240114342
S11316802F4A11602F4909680122202390FBF3F4AB
S113169004FB130412FA04F008432A4908604CE0DE
S11316A0294909680122202390FBF3F404FB130465
S11316B0A2401143244A11602449096801222023CD
S11316C090FBF3F404FB130412FA04F008431F49DB
S11316D0086032E01E4909680122202390FBF3F4DC
S11316E004FB1304A2401143194A11601949096803
S11316F00122202390FBF3F404FB130412FA04F0F8
S113170008431449086018E013490968012220239A
S113171090FBF3F404FB1304A24011430E4A11603E
S11317200E4909680122202390FBF3F404FB1304FF
S113173012FA04F008430949086010BC704700001D
S113174080E200E000E100E084E200E004E100E087
S113175088E200E008E100E08CE200E00CE100E057
S1131760021E5C2A02D20A1E102A00D305E000F1F0
S1131770604010F5644009010170704780B572B68D
S113178000F09CF800204049086001203E490860B0
S11317905FF0FF303D490968401A3D490968B0FBD4
S11317A0F1F04CF251318842F2D362B60FE039487D
S11317B0006830F400603749086037480068012841
S11317C005D10020344908603448FFF751F9344802
S11317D00068C0F3404010F00100324908703048FE
S11317E00068C0F3C02010F001002F4908702C4895
S11317F0006810F001002D4908702D480068C0F3FE
S1131800003010F001002B490870264800780028A9
S113181006D12948006850F480602749086005E033
S11318202548006830F48060234908601E48007829
S1131830002806D11748006850F0020015490860D6
S113184005E01448006830F00200124908601748A7
S11318500078002806D10F48006850F004000D49B4
S1131860086005E00B48006830F00400094908608E
S11318701048007800289AD10648006850F40060A7
S11318800449086099E700BF38710340347103408C
S11318901805FF1F00F00F409405FF1F8404FF1F6D
S11318A050F00F40A705FF1FA805FF1FA905FF1F44
S11318B010F00F40AA05FF1F40F00F4080B500F064
S11318C011F800F09DF800F0D9F800F011F9FFF7D5
S11318D0AFFEFFF7BBFBFFF797FC00F0A3F9FFF7A0
S11318E0AFF901BD4FF48070364908604FF4807041
S11318F0354908604FF48070344908604FF48070B3
S1131900334908603348006830F4003031490860D6
S11319103048006830F400602E4908602D480068A3
S1131920400840002B4908602B48006830F4805080
S1131930294908604FF480702849086028480068E5
S113194040084000264908604FF48070254908602B
S11319504FF48070244908602448006850F00070F7
S1131960224908602148006850F020001F4908609F
S11319704FF480701E4908604FF480701D49086060
S11319804FF480701C4908604FF480701B49086054
S11319901048006850F480600E4908600E480068E2
S11319A050F002000C4908600B48006850F0040035
S11319B0094908600848006850F400600649086056
S11319C0704700BF44A004402CA0044000A0044081
S11319D03090044054F00F4014F00F4000C0044015
S11319E0D4F00F4064D0044014D0044014F10F40EC
S11319F028A0044004900440089004402C90044023
S1131A001448006850F4000012490860002012498C
S1131A100860124800680521484311490860002005
S1131A201049086003200F4908600F48006850F00F
S1131A3001000D4908607FF01F000C490860002078
S1131A400B4908607FF01F000A49086000200A491A
S1131A50086070473C800440007003401405FF1F79
S1131A6000710340087103400C710340207103406E
S1131A7028710340307103403871034012480068F4
S1131A8050F080601049086005201049086000206B
S1131A900F49086000200F4908604FF6FF700E4997
S1131AA0086019200D490860C1200D490860FF2015
S1131AB00C4908604FF4C0600B4908604FF4C060E3
S1131AC00A490860704700BF3C80044054A00340AA
S1131AD04CA0034004A0034008A0034000A003401E
S1131AE080A0034078A0034048A004404CA00440D8
S1131AF080B500F036F800F001F801BD3348006805
S1131B0050F000703149086000203149086000201D
S1131B103049086004203049086000202F490860DB
S1131B2000202F49086000202E4908604FF47A7085
S1131B302D49086028202749086000202B490860A7
S1131B404FF440702A4908600A20244908600020A4
S1131B50264908602748006850F400702549086049
S1131B6070471A48006850F08070184908600420D3
S1131B7021490860002021490860002020490860AC
S1131B8000202049086000201F49086000201F49E8
S1131B90086043F2D4001E49086028201D490860EB
S1131BA000201D4908604FF480601C4908600D2026
S1131BB01249086042F26C0017490860184800682E
S1131BC050F4007016490860704700003C800440DF
S1131BD00C90034014900340549003400090034041
S1131BE04C90034004900340089003401890034035
S1131BF004A00440989003405480034000800340B4
S1131C004C800340048003400C8003401480034054
S1131C10088003402C8003403080034010C00440FF
S1131C209880034080B500F003F800F024F801BD6B
S1131C3000202249086000202049486000201F49F4
S1131C40886000201D49C8601D4800681B49086160
S1131C501C480068194948611B4800681749886195
S1131C604FF4FA701549C8611848144908620020F5
S1131C701249886270470020154908600020144901
S1131C80486000201249886000201149C86011484A
S1131C9000680F490861104800680D4948610F4801
S1131CA000680B4988614FF496600949C8610C4883
S1131CB00749086200200649886270472805FF1F0B
S1131CC06804FF1F6C04FF1F7004FF1F0CFEFFFF5E
S1131CD05405FF1F1C05FF1F2405FF1F2005FF1FC0
S1131CE050FBFFFF80B500F055F800F005F800F058
S1131CF06DF8FFF743FDFEE780B51C481C49884298
S1131D000BD0002006E01A4951F82010174A42F877
S1131D102010401CB0F5826FF5DB144800F08EF8FB
S1131D201449154A1548801A03E013780B70521CA5
S1131D30491C0300581E012BF7DA11491148401AB7
S1131D4002E000220A70491C0200501E012AF8DA3F
S1131D500D490E4A0E48801A03E013780B70521C8A
S1131D60491C0300581E012BF7DA01BD0000FF1FB8
S1131D70000000005C04FF1FCC1E0000F01E0000E9
S1131D808004FF1FB005FF1F1004FF1F481E000042
S1131D90941E000080B500F009F80A4800884FF648
S1131DA0FE7108400749088001BD000072B64CF27C
S1131DB02050054908804DF628100349088062B672
S1131DC070470000002005400E20054080B51548EE
S1131DD0006850F47850134908600720FFF750FB5F
S1131DE011490860104800684FF47A7148430F495C
S1131DF008600E4800680E490968C1F30361491C74
S1131E00B0FBF1F00B4908600A4800684FF47A719E
S1131E1090FBF1F008490860FFF7E2FBFFF7EBFBEA
S1131E2001BD00BF388004401005FF1F0C05FF1FD3
S1131E30448004401405FF1F1805FF1F0149086072
S1131E407047000008ED00E070B4104C24680F4D9A
S1131E502D6855F47F050D4E3560090611F070614B
S1131E6051EA0070110511F470010843190411F4CA
S1131E707021084306490860002000E0401CC0B2FD
S1131E809842FBD30148046070BC704700F00140E5
S1131E904480044010B5074979441831064C7C4409
S1131EA0163404E00A68081D511888470146A14207
S1131EB0F8D110BD080000001400000063ECFFFF1F
S1131EC0300100008004FF1F0000000040000000FB
S1131ED0320000003F0000000000904100008040FC
S1131EE00000803F19280000681000000100000075
S1131EF000F00BF8002801D0FFF7CCFF0020C0460B
S1131F00C046FFF73BFC00F002F80120704700F0E8
S1131F1001B800000746384600F002F8FBE700006D
S1131F2080B5C046C046024A11001820ABBEFBE78C
S1131F3026000200C046C046C046C046FFF7D8FF90
S9031F35A8
